:1000000053C0EAC16CC06BC06AC069C068C067C039
:1000100066C05FC564C063C062C061C060C05FC0CD
:100020005EC05DC05CC05BC05AC059C058C057C0FC
:1000300056C055C009022200010100800A090400CF
:100040000001030000000921010100012216000740
:100050000581030800641201100100000008C016A9
:10006000DF05000101020001140344006100740077
:100070006100530074006F007200650012036F008E
:1000800062006400650076002E00610074000403C5
:1000900009040600FF0901A101150026FF007508EB
:1000A00095800900B20201C011241FBECFEFD2E03B
:1000B000DEBFCDBF11E0A0E0B1E0E0E1FFE002C0B3
:1000C00005900D92A830B107D9F721E0A8E0B1E082
:1000D00001C01D92A439B207E1F7ADD517C790CF83
:1000E000CF93C62F2091180124FF07C0209119013A
:1000F00038E823272093190103C02AE5209318012B
:10010000DC01EAE1F1E09C2F9E0F8D918193892F14
:100110008E1B1816D4F36C2F8AE191E059D1CC5F75
:10012000C0931801CF910895CF93DF936091290177
:10013000635067FDBEC080912601CCE0D0E0C81BB3
:10014000D109C35DDE4F809125018D3209F0A0C039
:10015000683009F0ACC083EC80930D018AE5809390
:100160000101109208018881807631F0CE01AED273
:100170008F3F09F47CC082C09A8110921601898158
:10018000811106C01092170126E131E082E06AC0B9
:10019000853019F490932A0162C0863009F049C075
:1001A0008B81813019F486E590E01AC0823041F4E9
:1001B00084E390E0909328018093270182E235C088
:1001C0008330F1F4911108C08EE890E090932801FB
:1001D0008093270184E029C0913041F48CE790E0BE
:1001E000909328018093270182E11FC09230E1F4AF
:1001F00088E690E0909328018093270184E115C060
:10020000813241F486E490E09093280180932701A5
:1002100089E00BC0823241F482E990E0909328019A
:100220008093270186E101C080E090E4909308016B
:1002300025C0883069F0893019F490932C010FC0E3
:100240008A3049F08B3059F48BE48093190107C050
:100250002CE231E002C026E131E081E003C026E17A
:1002600031E080E0309328012093270107C0988176
:1002700097FD8E8190E89093080107C09F819111AE
:1002800004C09E81981708F4892F809300010FC045
:100290008091080187FF0BC0CE01F4D18F3F21F47C
:1002A0008EE18093010103C0811110920001109230
:1002B00029018091010184FF5CC0809100018F3F82
:1002C00009F457C0C82F893008F0C8E08C1B809310
:1002D000000180910D0198E8892780930D01CC23BE
:1002E000B9F18091080187FF08C06C2F8EE091E082
:1002F000AFD1C82F8930B8F52BC02091270130919C
:10030000280186FF12C0AEE0B1E04DE051E040951B
:100310005095420F531F8C2F8A0FFA01EA0FFB1FD3
:10032000E491ED938A13F9CF09C0EEE0F1E0D90131
:100330008C2F8E0F9D9191938E13FCCF2F5F3F4F8B
:100340008FEF8C0F280F311D309328012093270148
:100350006C2F8EE091E03CD0CC5FCC3041F08FEF41
:100360008093000104C08FEF80930001CEE1C09321
:10037000010184E193B1937031F48150D9F7109267
:100380002A0110922401DF91CF910895E9E6F0E06F
:10039000808182608083E89A8BE4809319018AE5EA
:1003A000809318010895A82FB92F80E090E041E0D4
:1003B00050EA609530E009C02D9182279795879586
:1003C00010F084279527305EC8F36F5FA8F3089577
:1003D000EADF8D939D930895CF93CFB7CF93C395C5
:1003E000189BE9F7189B09C0189B07C0189B05C00C
:1003F000189B03C0189B01C0A3C0DF93C0912601C6
:10040000DD27C35DDE4F189B02C0DF91EBCF2F933A
:100410000F931F9303B12FEF00FB20F94F933F93EE
:1004200013B14FEF012700FB21F93BE031C04E7FB4
:10043000012F13B1216028C0102F4D7F22600000D2
:1004400003B129C04B7F2460012F000013B12BC0E2
:1004500013B1477F28602AC04F7E03B120612CC0B2
:100460004F7D13B120622FC04F7B03B1206432C097
:10047000422703B149934FEF0000102710FB20F9EA
:1004800013B11370C9F1297F91F2012700FB21F903
:1004900003B1237F89F2315058F1102710FB22F964
:1004A00013B1277E79F2012700FB23F92F7C81F21B
:1004B00003B1102710FB24F92F7971F200C013B19A
:1004C000012700FB25F92F7359F200C003B1102753
:1004D00010FB26F9223040F200C013B1012700FBC7
:1004E00027F9243028F64F77206813B10000F9CFA0
:1004F00011E01CBB002719C03B503195C31BD040F5
:1005000011E01CBB0881033CF9F00B34E9F02091A9
:1005100024011981110F1213EDCF4A81441F0936AE
:1005200041F10D3211F0013E29F700932B013F916B
:100530004F911F910F912F91DF91CCB3C0FD4FCF01
:10054000CF91CFBFCF91189520912B01222379F322
:1005500010912901112369F534306AF13093290192
:1005600020932501109126013BE0311B3093260199
:1005700022C0009129010130E4F40AE54F7049F4EA
:100580003091010134FD19C000930101CDE0D1E0AB
:1005900018C03091180134FD10C000931801C9E152
:1005A000D1E00FC02795A8F45150A9F4220F000004
:1005B000F9CF4AE503C042ED01C0432FC4E1D0E0CA
:1005C00032E014B11360289A14B905B120E413E0A5
:1005D0005F93012756E005B9279520F4515021F487
:1005E000220FF9CF012756E000003B5A05B9D0F29F
:1005F000279528F4515029F4220F0000F9CF012744
:1006000056E0279505B920F4515021F4220FF9CF77
:10061000012756E02991332305B921F60C7F10916B
:100620002A01110FC651D04005B911F010932401D1
:1006300011E01CBB016014B11C7F402F4C7F5F9107
:1006400000C000C005B914B945B971CFD9CC08951F
:10065000CF9320910901C62F261708F4C22F4C2FE3
:1006600050E060910A0170E02CD480910A018C0F57
:1006700080930A01809109018C1B809309018C2FC2
:10068000CF910895CF93209170002E7F209370001A
:1006900020910901C62F261708F4C22F4C2F50E0D5
:1006A00060910A0170E01CD480910A018C0F809344
:1006B0000A01909109019C1B90930901911101C0BD
:1006C0009FCC81E0911180E0CF910895FC012081C1
:1006D0002076203259F48181877F813039F480E897
:1006E0008093090110920A018FEF089580E0089528
:1006F00080918F01882371F081FD07D280918F0155
:1007000082FD17D280918F0183FD38D280918F01B5
:1007100084FD66C20895FC0181E084A3828525A141
:100720003BB1813059F481E090E0022E01C0880F86
:100730000A94EAF7809583238BB9089581E090E0CD
:1007400001C0880F2A95EAF7809583238BB92FE79C
:1007500089EA93E0215080409040E1F700C000001A
:100760002BB181E090E005A002C0880F991F0A9488
:10077000E2F7282B2BB90895FC0114A2828535A13C
:100780002BB1813041F481E090E0032E01C0880F4D
:100790000A94EAF71CC081E090E0032E01C0880FA4
:1007A0000A94EAF7809582238BB92FE789EA93E0D0
:1007B000215080409040E1F700C000002BB181E063
:1007C00090E005A002C0880F991F0A94E2F7282B39
:1007D0002BB908950F931F93CF93DF934CE050E014
:1007E00060E070E083E491E06CD3809143019091EC
:1007F00044018A3A954549F110924401109243010F
:1008000081E090E090934601809345018EE190E075
:10081000909348018093470182E090E090934A01D1
:10082000809349018FEF9FEF90934C0180934B0190
:1008300081E080934D0180934E0184E090E01AD2D4
:1008400090936201809361011DC010914E0184E07C
:10085000189FE0011124CE010DD290936201809384
:100860006101009709F479C0111108C021E02093BB
:100870004E0144E050E064E170E003C0AE0168E185
:1008800070E01FD3E0916101F09162018091450118
:100890009091460191838083809147019091480116
:1008A0009383828321E020936801F0936401E093B5
:1008B000630180914E0194E0899FE00DF11D1124A8
:1008C000F0936601E09365011092600110925F0160
:1008D00080914B0190914C0190935E0180935D015A
:1008E00010926A0110926901C1E0D0E0D0936C01CE
:1008F000C0936B01D0936E01C0936D01D0937001D2
:10090000C0936F010FEF1FEF1093720100937101FD
:10091000209373012093740184E090E0ABD1909315
:10092000880180938701FC01D183C083D383C28374
:1009300010928E0190938A0180938901049690937E
:100940008C0180938B011092860110928501109387
:1009500084010093830180E001C081E0DF91CF91A9
:100960001F910F91089548E050E06CE070E08FE433
:1009700091E0A7D280914F01909150018A3A95451C
:1009800081F4809151019091520120915301309155
:1009900054018217930749F08091550190915601B7
:1009A00004C080914B0190914C0190935E01809323
:1009B0005D01089580915D0190915E0190935201D7
:1009C0008093510190935401809353019093560169
:1009D00080935501892B39F08AEA95E5909350016F
:1009E00080934F0104C01092500110924F0148E0D3
:1009F00050E06CE070E08FE491E072C28091700092
:100A0000816080937000B89A8091B1008660809375
:100A1000B100E0DE813089F0A6DFCCDF46E050E0B7
:100A20006AE770E087E591E04CD283E08AB983E41D
:100A300091E071DE89E691E06ECE0895CF93DF9369
:100A4000EC018A8D9B8D892B09F440C08C8D9D8D86
:100A500001969D8F8C8F2E813F812430310521F4AA
:100A600080915701909158012CA121110CC0E8A14F
:100A7000F9A1228133818217930741F5CE014BDE24
:100A80001D8E1C8E23C0213009F5E8A1F9A120811B
:100A9000318182179307D1F4CE016EDE1D8E1C8E3C
:100AA00088A199A1049699A388A32AA13BA18217A2
:100AB000930761F48A8D9B8D01979B8F8A8F8E8D12
:100AC0009F8D99A388A3DF91CF9174CFDF91CF91B0
:100AD00008951F920F920FB60F9211248F939F9338
:100AE00080910B0190910C01019690930C018093E1
:100AF0000B0180918F01826080938F019F918F9174
:100B00000F900FBE0F901F90189520918F012C7F92
:100B100020938F0180910B0190910C01873B9105EF
:100B200039F410920C0110920B01246020938F0174
:100B3000089580918F01887F80938F0190915C014F
:100B40009F5F9C3319F090935C0105C010925C018B
:100B5000886080938F018091490190914A010197AB
:100B600019F483E491E06ADF80916F019091700144
:100B7000019719F489E691E061CF089580918F0182
:100B8000807F80938F01909157019F5F9C3319F074
:100B90009093570105C010925701806180938F0197
:100BA00046E050E06AE770E087E591E099D18091F6
:100BB000490190914A018230910511F0049719F48E
:100BC00083E491E03BDF80916F019091700182306E
:100BD000910511F0049719F489E691E02FCF08955B
:100BE00080918F01807E80938F01809158018F5F6B
:100BF000883119F0809358010BC0109258018091F0
:100C0000590190915A01019690935A01809359018C
:100C10008091490190914A01039719F483E491E08E
:100C20000DDF80916F0190917001039719F489E6AF
:100C300091E004CF08952EE088E190E00FB6F8949B
:100C4000A895809360000FBE209360009FDB209AE0
:100C500080E0815041F0A895E7EBFBE03197F1F798
:100C600000C00000F6CF20987894C8DE41DDA8953A
:100C70005BDAFCCFCF93DF938230910510F482E0F2
:100C800090E0E0919201F091930120E030E0A0E04B
:100C9000B0E0309739F14081518148175907B8F0D9
:100CA0004817590771F482819381109729F01396A0
:100CB0009C938E9312972CC09093930180939201F2
:100CC00027C02115310531F04217530718F0A9014B
:100CD000DB0101C0EF019A01BD01DF010280F38158
:100CE000E02DD7CF21153105F9F0281B390B243021
:100CF000310580F48A819B816115710521F0FB012A
:100D00009383828304C09093930180939201FE01A8
:100D1000329644C0FE01E20FF31F8193919322505B
:100D20003109398328833AC0209190013091910193
:100D3000232B41F42091040130910501309391015E
:100D4000209390012091020130910301211531057A
:100D500041F42DB73EB74091060150910701241B85
:100D6000350BE0919001F0919101E217F307A0F4A7
:100D70002E1B3F0B2817390778F0AC014E5F5F4FF1
:100D80002417350748F04E0F5F1F50939101409391
:100D900090018193919302C0E0E0F0E0CF01DF91F8
:100DA000CF910895CF93DF93009709F487C0FC019A
:100DB000329713821282C0919201D09193012097B1
:100DC00081F420813181280F391F80919001909109
:100DD00091018217930779F5F0939101E0939001C7
:100DE0006DC0DE0120E030E0AE17BF0750F4129670
:100DF0004D915C9113979D014115510509F1DA015F
:100E0000F3CFB383A28340815181840F951F8A174A
:100E10009B0771F48D919C911197840F951F0296F9
:100E20009183808312968D919C91139793838283F3
:100E30002115310529F4F0939301E09392013EC00E
:100E4000D9011396FC93EE9312974D915D91A40FE7
:100E5000B51FEA17FB0779F480819181840F951FF4
:100E60000296D90111969C938E9382819381139659
:100E70009C938E931297E0E0F0E08A819B8100972B
:100E800019F0FE01EC01F9CFCE01029628813981DB
:100E9000820F931F209190013091910128173907FB
:100EA00069F4309729F4109293011092920102C0D4
:100EB00013821282D0939101C0939001DF91CF9160
:100EC0000895DC01862FE82FF999FECF12BC05C0EA
:100ED000E1BDF89AE39500B40D924150C8F708952A
:100EE000DC01862F02C02D9104D04150E0F7089517
:100EF000262FF999FECF1FBA12BC81BD20BD0FB6B7
:100F0000F894FA9AF99A0FBE01960895F894FFCFD3
:080F1000FF5A000094012000CB
:00000001FF
