:100000004CC0DAC165C064C0FCC362C061C060C0DE
:100010005FC05EC05DC05CC05BC05AC059C058C004
:1000200057C056C055C00403090412036F00620094
:100030006400650076002E00610074001403440023
:10004000610074006100530074006F00720065006D
:100050001201100100000008C016DF0500010102B6
:10006000000109022200010100800A0904000001C8
:10007000030000000921010100012216000705818B
:10008000030800640600FF0901A101150026FF0016
:10009000750895800900B20201C011241FBECFE58A
:1000A000D4E0DEBFCDBF10E0A0E6B0E0E8EAFDE0BE
:1000B00002C005900D92A437B107D9F710E0A4E76C
:1000C000B0E001C01D92AE3CB107E1F7EDD26AC6C7
:1000D00097CF85B7826085BF8BB780648BBF8BE479
:1000E00080939F008AE580939E0008951F93DC0112
:1000F000162F80919E0084FF07C080919F0098E892
:10010000892780939F0003C08AE580939E00912FEA
:10011000E0EAF0E08D91819391501916DCF380EACA
:1001200090E0612F45D11C5F10939E001F910895B0
:100130001F93CF93DF936091AF00635067FDBDC005
:100140008091AC00CCE0D0E0C81BD109CD54DF4F8A
:100150008091AB008D3209F09EC0683009F0ABC0D1
:1001600083EC809393008AE5809360001092740082
:100170008881807639F0CE015BD2282F8F3F09F439
:1001800079C07FC09A8110929C008981882321F4D4
:1001900010929D0022E067C0853019F49093B00062
:1001A00061C0863009F04AC08B81813019F480E546
:1001B00090E01BC0823041F482E690E09093AE0064
:1001C0008093AD0022E236C08330F9F48A8188231F
:1001D00041F486E290E09093AE008093AD0024E07D
:1001E00029C0813041F48AE290E09093AE00809380
:1001F000AD0022E11FC08230E1F48CE390E09093E7
:10020000AE008093AD0024E115C0813241F484E753
:1002100090E09093AE008093AD0029E00BC0823255
:1002200041F484E890E09093AE008093AD0026E125
:1002300001C020E080E48093740023C0883021F462
:1002400021E082EB90E011C0893019F49093B20064
:1002500009C08A3011F421E006C08B3019F48BE418
:1002600080939F0020E08CE990E09093AE00809313
:10027000AD0007C0888187FD2E8180E880937400DF
:1002800006C08F81882319F48E81821708F0822F8F
:100290008093610010C08091740087FF0CC0CE0174
:1002A0001FD28F3F21F48EE18093600004C0882329
:1002B00011F0109261001092AF008091600084FFF5
:1002C00054C0809161008F3F09F44FC0182F8930CE
:1002D00008F018E0811B809361008091930098E8FA
:1002E000892780939300112371F18091740087FF17
:1002F00008C084E990E0612F18D2182F893078F572
:1003000022C02091AD003091AE0086FF0AC0912F2F
:10031000F901A4E9B0E084918D9331969150D9F719
:1003200008C0912FD901E4E9F0E08D9181939150BB
:10033000E1F7C90101961150810F911D1F5F909344
:10034000AE008093AD0084E990E0612F31D0612F41
:100350006C5F6C3041F08FEF8093610004C08FEFD1
:10036000809361006EE16093600094E186B38370D6
:1003700031F49150D9F71092B0001092AA00DF9199
:10038000CF911F910895A82FB92F80E090E041E010
:1003900050EA609530E009C02D91822797958795A6
:1003A00010F084279527305EC8F36F5FA8F3089597
:1003B000EADF8D939D930895CF93CFB7CF93C395E5
:1003C000B09BE9F7B09B09C0B09B07C0B09B05C0CC
:1003D000B09B03C0B09B01C0A3C0DF93C091AC0031
:1003E000DD27CD54DF4FB09B02C0DF91EBCF2F93C1
:1003F0000F931F9306B32FEF00FB20F94F933F930A
:1004000016B34FEF012700FB21F93BE031C04E7FCF
:10041000012F16B3216028C0102F4D7F22600000ED
:1004200006B329C04B7F2460012F000016B32BC0F8
:1004300016B3477F28602AC04F7E06B320612CC0C8
:100440004F7D16B320622FC04F7B06B3206432C0AD
:10045000422706B349934FEF0000102710FB20F905
:1004600016B31370C9F1297F91F2012700FB21F91E
:1004700006B3237F89F2315058F1102710FB22F97F
:1004800016B3277E79F2012700FB23F92F7C81F236
:1004900006B3102710FB24F92F7971F200C016B3B0
:1004A000012700FB25F92F7359F200C006B310276E
:1004B00010FB26F9223040F200C016B3012700FBE2
:1004C00027F9243028F64F77206816B30000F9CFBB
:1004D00010E41ABF002719C03B503195C31BD04010
:1004E00010E41ABF0881033CF9F00B34E9F02091C5
:1004F000AA001981110F1213EDCF4A81441F09364A
:1005000041F10D3211F0013E29F70093B1003F9106
:100510004F911F910F912F91DF91CAB7C6FD4FCF19
:10052000CF91CFBFCF9118952091B100222379F3BD
:100530001091AF00112369F534306AF13093AF00A8
:100540002093AB001091AC003BE0311B3093AC002A
:1005500022C00091AF000130E4F40AE54F7049F485
:100560003091600034FD19C000936000C3E9D0E011
:1005700018C030919E0034FD10C000939E00CFE95A
:10058000D0E00FC02795A8F45150A9F4220F000025
:10059000F9CF4AE503C042ED01C0432FC4E1D0E0EA
:1005A00032E017B31360C09A17BB08B320E413E01E
:1005B0005F93012756E008BB279520F4515021F4A2
:1005C000220FF9CF012756E000003B5A08BBD0F2BA
:1005D000279528F4515029F4220F0000F9CF012764
:1005E00056E0279508BB20F4515021F4220FF9CF93
:1005F000012756E02991332308BB21F60C7F109187
:10060000B000110FC651D04008BB11F01093AA00E2
:1006100010E41ABF016017B31C7F402F4C7F5F911D
:1006200000C000C008BB17BB48BB71CFE9CC089520
:10063000FC0180818076803261F48181813011F00B
:10064000893039F480E880937600109275008FEF3E
:10065000089580E008958091C90080FF06C0EDD024
:100660008091C9008E7F8093C9008091C90082FF6C
:1006700006C0BFD18091C900887F8093C900809156
:10068000C90083FF06C0D1D18091C900807F8093CB
:10069000C9008091C90084FF06C08BD18091C90038
:1006A000807E8093C90008952EE088E190E00FB627
:1006B000F894A89581BD0FBE21BD0BDD21D2B89A5B
:1006C00020E048EB5BE004C0A895CA010197F1F770
:1006D0002150D1F7B8987894A8952ADDBCDFFCCFDB
:1006E0001F939C0189B78F7B89BF80917600162F5D
:1006F000861708F4182F60917500C90170E0412F2A
:1007000050E03AD380917500810F809375009091ED
:100710007600911B90937600992309F471CC80E0C8
:10072000992309F481E01F9108951F932091760089
:10073000162F261708F4122F6091750070E0412FD4
:1007400050E00AD380917500810F809375008091ED
:100750007600811B80937600812F1F9108958091F0
:100760006C00813011F4A99A0895A99A88EE93E05B
:100770002CE231E0F9013197F1F70197D9F7A99807
:10078000089580916C008130A9F020918D00309106
:100790008E0080916A0090916B002817390751F004
:1007A000A99A88EE93E02CE231E0F9013197F1F754
:1007B0000197D9F7A99808958091800090918100C0
:1007C0008A5A9545A9F42091820030918300809146
:1007D0008400909185002817390729F080918600C0
:1007E0009091870009C030938E0020938D0008956A
:1007F00080916A0090916B0090938E0080938D00A1
:1008000008951F920F920FB60F9211248F939F930A
:100810008091770090917800019690937800809372
:1008200077008091C90081608093C9009F918F916A
:100830000F900FBE0F901F901895809177009091A8
:100840007800873B910549F48091C90084608093CA
:10085000C9001092780010927700089520918D00C1
:1008600030918E0030938300209382003093850076
:100870002093840030938700209386008AEA95E5D0
:100880009093810080938000232B21F410928100AB
:100890001092800080E890E06CE070E048E050E06A
:1008A0006BD20895CF93DF93809168009091690097
:1008B000049719F489E890E002C08DE790E09093E6
:1008C0007A008093790080917F00882361F5809180
:1008D0007D0090917E00019690937E0080937D0034
:1008E000A0917900B0917A0080919100909192004E
:1008F000880F991F880F991FE0918F00F091900049
:10090000E80FF91F2D913C918281938128173907B7
:1009100009F04CC024DF81E080937F0010927C00BE
:1009200010927B0043C0813009F040C020917B00D1
:1009300030917C002F5F3F4F30937C0020937B00F1
:10094000C0919100D0919200CE01880F991F880F1D
:10095000991FE0918F00F0919000E80FF91F8081BE
:1009600091812817390711F50CDF10927F00109242
:100970007E0010927D009E012F5F3F4F30939200CA
:100980002093910080916D0090E02817390771F451
:1009900080918D0090918E00019790938E008093AE
:1009A0008D00109292001092910058DFDF91CF914C
:1009B000089580918A008F5F80938A00883159F46E
:1009C00080918B0090918C00019690938C00809385
:1009D0008B0010928A0080916800909169000397C3
:1009E00039F480918D0090918E00892B09F05ADFA7
:1009F0000895809188008F5F809388008C3339F44C
:100A00008091C90088608093C9001092880080910D
:100A1000680090916900019739F480918D00909160
:100A20008E00892B09F03EDF0895809189008F5F49
:100A3000809389008C3339F48091C9008061809360
:100A4000C900109289008091680090916900029716
:100A500039F480918D0090918E00892B09F022DF6E
:100A60008091680090916900049739F480918D001D
:100A700090918E00892B09F015DF89E890E06CE7F2
:100A800070E044E050E078D1089580916D008823B3
:100A9000C9F481E080936D0084E090E058D0FC01BF
:100AA0009093900080938F008091640090916500F6
:100AB0009183808380916600909167009383828305
:100AC00080E0089590E0880F991F880F991F3FD00C
:100AD0009093900080938F00009711F48FEF08950A
:100AE00040916D0050E0440F551F440F551F64E1C5
:100AF00070E032D1109292001092910080E008953F
:100B000089B7806489BF88B7806488BF85B58660EF
:100B100085BD82E690E060E070E04CE050E01CD1E2
:100B2000B4DF8F3F99F089E890E06CE770E044E033
:100B300050E012D180E890E06CE070E048E050E0D6
:100B40000BD13ADE8BDE1DDE82E084BB0895CF93AD
:100B5000DF93BC018230910510F462E070E0A09157
:100B6000CC00B091CD00ED01E0E0F0E040E050E0DD
:100B700021C0888199818617970769F48A819B81B2
:100B8000309719F09383828304C09093CD008093B3
:100B9000CC00FE0134C06817790738F441155105BF
:100BA00019F08417950708F4AC01FE018A819B8136
:100BB0009C01E9012097E9F641155105A9F1CA0107
:100BC000861B970B049708F4BA01E0E0F0E02AC016
:100BD0008D919C91119784179507F9F46417750707
:100BE00081F412968D919C911397309719F093830D
:100BF000828304C09093CD008093CC00FD01329697
:100C00004FC0CA01861B970BFD01E80FF91F6193C6
:100C1000719302978D939C9343C0FD0182819381D0
:100C20009C01D9011097A1F68091CA009091CB0048
:100C3000892B41F480917000909171009093CB00CA
:100C40008093CA0040917200509173004115510584
:100C500041F44DB75EB780916E0090916F00481BD4
:100C6000590B2091CA003091CB0024173507B0F4FE
:100C7000CA01821B930B8617970780F0AB014E5F6A
:100C80005F4F8417950750F0420F531F5093CB00CE
:100C90004093CA00F9016193719302C0E0E0F0E073
:100CA000CF01DF91CF910895CF93DF93009709F49F
:100CB00050C0EC0122971B821A82A091CC00B09107
:100CC000CD00109709F140E050E0AC17BD0708F1E6
:100CD000BB83AA83FE0121913191E20FF31FAE176E
:100CE000BF0779F48D919C911197280F391F2E5FC2
:100CF0003F4F3983288312968D919C9113979B8344
:100D00008A834115510571F4D093CD00C093CC0076
:100D100020C012968D919C911397AD01009711F010
:100D2000DC01D3CFFA01D383C28321913191E20F49
:100D3000F31FCE17DF0769F488819981280F391FC7
:100D40002E5F3F4FFA01318320838A819B819383F9
:100D50008283DF91CF910895DC01CB01FC01E19901
:100D6000FECF06C0FFBBEEBBE09A31960DB20D92EE
:100D700041505040B8F70895DC01CB0102C02D91DD
:100D800005D041505040D8F70895262FE199FECF65
:100D90009FBB8EBB2DBB0FB6F894E29AE19A0FBEB3
:080DA00001960895F894FFCFBD
:100DA8005AFF0000030003000100C80001002000F2
:040DB800CE00000069
:00000001FF
