:1000000053C0E1C16CC06BC06AC069C068C067C042
:1000100066C002C464C063C062C061C060C05FC02B
:100020005EC05DC05CC05BC05AC059C058C057C0FC
:1000300056C055C00403090412036F006200640037
:10004000650076002E006100740014034400610016
:1000500074006100530074006F00720065001201AB
:10006000100100000008C016DF05000101020001B8
:1000700009022200010100800A09040000010300B6
:100080000000092101010001221600070581030873
:1000900000640600FF0901A101150026FF00750894
:1000A00095800900B20201C011241FBECFEFD2E03B
:1000B000DEBFCDBF11E0A0E0B1E0E0ECFDE002C0AA
:1000C00005900D92A431B107D9F711E0A4E1B1E098
:1000D00001C01D92AE36B107E1F7EDD26FC690CFE9
:1000E000E9E6F0E0808182608083E89A8BE4809387
:1000F0003F018AE580933E0108951F93DC01162F8E
:1001000080913E0184FF07C080913F0198E88927D4
:1001100080933F0103C08AE580933E01912FE0E484
:10012000F1E08D91819391501916DCF380E491E018
:10013000612F45D11C5F10933E011F9108951F93BD
:10014000CF93DF9360914F01635067FDBDC08091F5
:100150004C01CCE0D0E0C81BD109CD5ADE4F8091D4
:100160004B018D3209F09EC0683009F0ABC083ECC2
:10017000809333018AE580930001109214018881F5
:10018000807639F0CE015BD2282F8F3F09F479C0F9
:100190007FC09A8110923C018981882321F41092BA
:1001A0003D0122E067C0853019F49093500161C091
:1001B000863009F04AC08B81813019F48EE590E0D9
:1001C0001BC0823041F480E790E090934E01809311
:1001D0004D0122E236C08330F9F48A81882341F44C
:1001E00084E390E090934E0180934D0124E029C078
:1001F000813041F488E390E090934E0180934D016B
:1002000022E11FC08230E1F48AE490E090934E0135
:1002100080934D0124E115C0813241F482E890E0E1
:1002200090934E0180934D0129E00BC0823241F43E
:1002300082E990E090934E0180934D0126E101C048
:1002400020E080E48093140123C0883021F421E071
:1002500082E591E011C0893019F49093520109C0F0
:100260008A3011F421E006C08B3019F48BE48093BE
:100270003F0120E08CE391E090934E0180934D018B
:1002800007C0888187FD2E8180E88093140106C015
:100290008F81882319F48E81821708F0822F809332
:1002A000010110C08091140187FF0CC0CE0121D242
:1002B0008F3F21F48EE18093000104C0882311F068
:1002C0001092010110924F018091000184FF54C0EF
:1002D000809101018F3F09F44FC0182F893008F039
:1002E00018E0811B809301018091330198E88927F0
:1002F00080933301112371F18091140187FF08C0AD
:1003000084E391E0612F1CD2182F893078F522C048
:1003100020914D0130914E0186FF0AC0F901912FC5
:10032000A4E3B1E084918D9331969150D9F708C040
:10033000D901912FE4E3F1E08D9181939150E1F7A0
:10034000C90101961150810F911D1F5F90934E01BD
:1003500080934D0184E391E0612F31D0612F6C5F78
:100360006C3041F08FEF8093010104C08FEF8093D8
:1003700001016EE16093000194E183B1837031F477
:100380009150D9F71092500110924A01DF91CF910C
:100390001F910895A82FB92F80E090E041E050EA26
:1003A000609530E009C02D9182279795879510F0D0
:1003B00084279527305EC8F36F5FA8F30895EADFBE
:1003C0008D939D930895CF93CFB7CF93C395189BEB
:1003D000E9F7189B09C0189B07C0189B05C0189B1C
:1003E00003C0189B01C0A3C0DF93C0914C01DD275F
:1003F000CD5ADE4F189B02C0DF91EBCF2F930F93A6
:100400001F9303B12FEF00FB20F94F933F9313B1DC
:100410004FEF012700FB21F93BE031C04E7F012F58
:1004200013B1216028C0102F4D7F2260000003B15E
:1004300029C04B7F2460012F000013B12BC013B1E2
:10044000477F28602AC04F7E03B120612CC04F7DBA
:1004500013B120622FC04F7B03B1206432C042270A
:1004600003B149934FEF0000102710FB20F913B19F
:100470001370C9F1297F91F2012700FB21F903B123
:10048000237F89F2315058F1102710FB22F913B164
:10049000277E79F2012700FB23F92F7C81F203B13B
:1004A000102710FB24F92F7971F200C013B1012736
:1004B00000FB25F92F7359F200C003B1102710FB80
:1004C00026F9223040F200C013B1012700FB27F9C2
:1004D000243028F64F77206813B10000F9CF11E0DF
:1004E0001CBB002719C03B503195C31BD04011E005
:1004F0001CBB0881033CF9F00B34E9F020914A0160
:100500001981110F1213EDCF4A81441F093641F1B1
:100510000D3211F0013E29F7009351013F914F91A7
:100520001F910F912F91DF91CCB3C0FD4FCFCF9191
:10053000CFBFCF91189520915101222379F31091CB
:100540004F01112369F534306AF130934F01209344
:100550004B0110914C013BE0311B30934C0122C008
:1005600000914F010130E4F40AE54F7049F43091F5
:10057000000134FD19C000930001C3E3D1E018C0AD
:1005800030913E0134FD10C000933E01CFE3D1E035
:100590000FC02795A8F45150A9F4220F0000F9CFFD
:1005A0004AE503C042ED01C0432FC4E1D0E032E090
:1005B00014B11360289A14B905B120E413E05F93D5
:1005C000012756E005B9279520F4515021F4220F58
:1005D000F9CF012756E000003B5A05B9D0F2279524
:1005E00028F4515029F4220F0000F9CF012756E0DA
:1005F000279505B920F4515021F4220FF9CF012796
:1006000056E02991332305B921F60C7F1091500152
:10061000110FC651D04005B911F010934A0111E0F5
:100620001CBB016014B11C7F402F4C7F5F9100C048
:1006300000C005B914B945B971CFE2CC0895FC01E9
:1006400080818076803261F48181813011F089303F
:1006500039F480E880931601109215018FEF089508
:1006600080E008958091690180FF06C0F1D08091FB
:1006700069018E7F809369018091690182FF06C0C4
:10068000C3D180916901887F80936901809169015C
:1006900083FF06C0D5D180916901807F8093690175
:1006A0008091690184FF06C08FD180916901807EAD
:1006B0008093690108952EE088E190E00FB6F894E8
:1006C000A895809360000FBE2093600009DD23D2BF
:1006D000209A20E048EB5BE004C0A895CA0101978E
:1006E000F1F72150D1F720987894A89528DDBADF4A
:1006F000FCCF1F939C01809170008E7F80937000CF
:1007000080911601162F861708F4182F6091150195
:10071000C90170E0412F50E03BD380911501810F5A
:100720008093150190911601911B909316019923C6
:1007300009F466CC80E0992309F481E01F910895C3
:100740001F9320911601162F261708F4122F60917F
:10075000150170E0412F50E00CD380911501810FFD
:100760008093150180911601811B80931601812FC2
:100770001F91089580910C01813011F4419A0895E0
:10078000419A88EE93E02CE231E0F9013197F1F7DC
:100790000197D9F74198089580910C018130A9F013
:1007A00020912D0130912E0180910A0190910B0131
:1007B0002817390751F0419A88EE93E02CE231E096
:1007C000F9013197F1F70197D9F741980895809190
:1007D0002001909121018A5A9545A9F42091220186
:1007E0003091230180912401909125012817390728
:1007F00029F0809126019091270109C030932E01A4
:1008000020932D01089580910A0190910B019093FE
:100810002E0180932D0108951F920F920FB60F9213
:1008200011248F939F938091170190911801019645
:1008300090931801809317018091690181608093E2
:1008400069019F918F910F900FBE0F901F90189587
:100850008091170190911801873B910549F480918F
:100860006901846080936901109218011092170148
:10087000089520912D0130912E0130932301209372
:1008800022013093250120932401309327012093E6
:1008900026018AEA95E59093210180932001232B7C
:1008A00021F4109221011092200180E291E06CE08D
:1008B00070E048E050E06CD20895CF93DF938091D0
:1008C000080190910901049719F489E291E002C0AE
:1008D0008DE191E090931A018093190180911F019D
:1008E000882361F580911D0190911E0101969093DE
:1008F0001E0180931D01A0911901B0911A018091F0
:10090000310190913201880F991F880F991FE09152
:100910002F01F0913001E80FF91F2D913C91828158
:1009200093812817390709F04CC024DF81E08093B8
:100930001F0110921C0110921B0143C0813009F06D
:1009400040C020911B0130911C012F5F3F4F30931D
:100950001C0120931B01C0913101D0913201CE01C5
:10096000880F991F880F991FE0912F01F091300196
:10097000E80FF91F808191812817390711F50CDFE5
:1009800010921F0110921E0110921D019E012F5FF7
:100990003F4F309332012093310180910D0190E05F
:1009A0002817390771F480912D0190912E0101973C
:1009B00090932E0180932D011092320110923101FB
:1009C00058DFDF91CF91089580912A018F5F809346
:1009D0002A01883159F480912B0190912C010196C4
:1009E00090932C0180932B0110922A018091080191
:1009F00090910901039739F480912D0190912E0176
:100A0000892B09F05ADF0895809128018F5F809328
:100A100028018C3339F480916901886080936901E1
:100A2000109228018091080190910901019739F4F1
:100A300080912D0190912E01892B09F03EDF0895C0
:100A4000809129018F5F809329018C3339F4809143
:100A500069018061809369011092290180910801E8
:100A600090910901029739F480912D0190912E0106
:100A7000892B09F022DF80910801909109010497E8
:100A800039F480912D0190912E01892B09F015DF09
:100A900089E291E06CE770E044E050E079D108959C
:100AA00080910D018823C9F481E080930D0184E0D9
:100AB00090E05AD0FC019093300180932F018091F7
:100AC00004019091050191838083809106019091AA
:100AD00007019383828380E0089590E0880F991F37
:100AE000880F991F41D09093300180932F01009778
:100AF00011F48FEF089540910D0150E0440F551F00
:100B0000440F551F64E170E034D11092320110920D
:100B1000310180E0089580917000816080937000C1
:100B2000B89A8091B10086608093B10082E091E034
:100B300060E070E04CE050E01CD1B2DF8F3F99F0F4
:100B400089E291E06CE770E044E050E012D180E28D
:100B500091E06CE070E048E050E00BD138DE89DED7
:100B60001BDE82E087B90895CF93DF93BC0182300A
:100B7000910510F462E070E0A0916C01B0916D01FC
:100B8000ED01E0E0F0E040E050E021C08881998193
:100B90008617970769F48A819B81309719F09383B0
:100BA000828304C090936D0180936C01FE0134C078
:100BB0006817790738F44115510519F0841795071E
:100BC00008F4AC01FE018A819B819C01E901209718
:100BD000E9F641155105A9F1CA01861B970B049747
:100BE00008F4BA01E0E0F0E02AC08D919C911197E1
:100BF00084179507F9F46417750781F412968D919F
:100C00009C911397309719F09383828304C090933B
:100C10006D0180936C01FD0132964FC0CA01861BA5
:100C2000970BFD01E80FF91F6193719302978D9364
:100C30009C9343C0FD01828193819C01D90110974F
:100C4000A1F680916A0190916B01892B41F480910A
:100C500010019091110190936B0180936A01409172
:100C60001201509113014115510541F44DB75EB782
:100C700080910E0190910F01481B590B20916A0140
:100C800030916B0124173507B0F4CA01821B930B16
:100C90008617970780F0AB014E5F5F4F841795076B
:100CA00050F0420F531F50936B0140936A01F901BA
:100CB0006193719302C0E0E0F0E0CF01DF91CF914A
:100CC0000895CF93DF93009709F450C0EC01229769
:100CD0001B821A82A0916C01B0916D01109709F1ED
:100CE00040E050E0AC17BD0708F1BB83AA83FE01CA
:100CF00021913191E20FF31FAE17BF0779F48D9167
:100D00009C911197280F391F2E5F3F4F39832883FD
:100D100012968D919C9113979B838A83411551055F
:100D200071F4D0936D01C0936C0120C012968D9127
:100D30009C911397AD01009711F0DC01D3CFFA011C
:100D4000D383C28321913191E20FF31FCE17DF07C6
:100D500069F488819981280F391F2E5F3F4FFA016E
:100D6000318320838A819B8193838283DF91CF911A
:100D70000895DC01862FE82FF999FECF12BC05C03B
:100D8000E1BDF89AE39500B40D924150C8F708957B
:100D9000DC01862F02C02D9104D04150E0F7089568
:100DA000262FF999FECF1FBA12BC81BD20BD0FB608
:100DB000F894FA9AF99A0FBE01960895F894FFCF25
:100DC0005AFF0000030003000100C80001002000DA
:040DD0006E010000B0
:00000001FF
